:060000000A128A1110280B
:10000800FE00030E83160313C7000A08C8007F0802
:10001800C9000A128A118F2B0A128A111328831316
:10002800DB30FD001730FE00D130FF00CE308400F9
:100038000A128A11EE270A128A11A0308400B930F8
:100048000A168A11C9270A128A11EF0183010A12B6
:100058008A154F2B831203133D088039C2004208CA
:10006800C7003D08C2004207C3004308CD00BC1FBB
:100078003E283F2840284D144D0803194428452898
:1000880054284D0A031D49284A2852280030BD002B
:100098000030BC000030BB000030BA00BC175C2840
:1000A8000030BD000030BC000030BB000030BA009A
:1000B80041088039C2004208C7064108C200420709
:1000C800C3004308CC00C01F6A286B286C284C1456
:1000D8004C0803197028712880284C0A031D7528BC
:1000E80076287E280030C1000030C0000030BF00F4
:1000F8000030BE00C01788280030C1000030C000A2
:100108000030BF000030BE004C0803198C288D2831
:1001180092284D08031D912892289B280030BD0085
:100128000030BC000030BB000030BA008E2B3A080B
:10013800C2004208F00040080A128A1539200A1243
:100148008A11710883120313D3007008D200520871
:10015800C200C301C401C5014508CB004408CA0058
:100168004308C9004208C8005308C200C301C401BB
:10017800C5014508D1004408D0004308CF00420813
:10018800CE003B08C2004208F0003F080A128A1558
:1001980039200A128A11710883120313D3007008D8
:1001A800D2005208C200C301C401C5014208C807F1
:1001B800430803110318013E0319E328C90744083B
:1001C80003110318013E0319EA28CA074508031159
:1001D8000318013E0319F128CB075308C200C301D5
:1001E800C401C5014208CE07430803110318013EA4
:1001F8000319FF28CF07440803110318013E031908
:100208000629D007450803110318013E03190D29D3
:10021800D1073C08C2004208F0003E080A128A15BD
:1002280039200A128A11710883120313D300700847
:10023800D2005208C200C301C401C5014208C80760
:10024800430803110318013E03192B29C907440861
:1002580003110318013E03193229CA07450803117F
:100268000318013E03193929CB075308C200C301FB
:10027800C401C5014208CE07430803110318013E13
:1002880003194729CF07440803110318013E03192E
:100298004E29D007450803110318013E03195529B3
:1002A800D1070830C2000310C80DC90DCA0DCB0D07
:1002B800C20B57293B08C2004208F0003E080A1248
:1002C8008A1539200A128A11710883120313D30080
:1002D8007008D2005208C2005308C300C401C50107
:1002E8004208C807430803110318013E03197D2972
:1002F800C907440803110318013E03198429CA07D2
:10030800450803110318013E03198B29CB073A0846
:10031800C2004208F0003F080A128A1539200A1262
:100328008A11710883120313D3007008D20052088F
:10033800C2005308C300C401C5014208C8074308E6
:1003480003110318013E0319AA29C9074408031118
:100358000318013E0319B129CA07450803110318F8
:10036800013E0319B829CB070830C2000310C80D95
:10037800C90DCA0DCB0DC20BBA293A08C2004208F2
:10038800F0003E080A128A1539200A128A117108EB
:1003980083120313D3007008D2005208C200530816
:1003A800C300C401C5014208C80743080311031864
:1003B800013E0319E029C907440803110318013E47
:1003C8000319E729CA07450803110318013E031951
:1003D800EE29CB073B08C2004208F00040080A1289
:1003E8008A1539200A128A11710883120313D3005F
:1003F8007008D2005208C2005308C300C401C501E6
:100408004208CE07430803110318013E03190D2AB9
:10041800CF07440803110318013E0319142AD00713
:10042800450803110318013E03191B2AD1073C088C
:10043800C2004208F0003F080A128A1539200A1241
:100448008A11710883120313D3007008D20052086E
:10045800C2005308C300C401C5014208CE074308BF
:1004680003110318013E03193A2ACF074408031160
:100478000318013E0319412AD00745080311031840
:10048800013E0319482AD1073C08C2004208F0007F
:1004980040080A128A1539200A128A117108831233
:1004A8000313D3007008D2005208C2005308C300D7
:1004B800C401C50108300310C20DC30DC40DC50D1C
:1004C800FF3E031D5F2A4208CE07430803110318A5
:1004D800013E0319702ACF07440803110318013E8F
:1004E8000319772AD007450803110318013E031999
:1004F8007E2AD1074808C2004908C3004A08C40038
:100508004B08C50018300310C50CC40CC30CC20C32
:10051800FF3E031D872A4208CE074308031103182C
:10052800013E0319982ACF07440803110318013E16
:1005380003199F2AD007450803110318013E031920
:10054800A62AD1070830C2000310C80DC90DCA0D6C
:10055800CB0DC20BA82A4D084C07C200C301C30D1E
:100568004208823ED20043080318013EFF3ED300F2
:10057800DA2A0130C2000310CE0DCF0DD00DD10DF7
:10058800C20BBF2ACB1FC92ACA2ACB2A4E14013054
:10059800C2000310C80DC90DCA0DCB0DC20BCD2A60
:1005A800FF30D2070318D30AFF30D307D01FDD2A44
:1005B800DE2ABD2ACC01CB1FE22AE32AFF2AFF301C
:1005C8004805C200FF304905C300FF304A05C40092
:1005D8007F304B05C5004508440443044204031911
:1005E800F62AF72AFA2ACC01CC0AFF2A4E1CFD2A41
:1005F800FE2AFF2AF72A4C080319032B042B352B54
:100608000130CE07003003180130CF07003003183F
:100618000130D007003003180130D107511C152BC9
:10062800162B352B4E08C2004F08C3005008C400D3
:100638005108C5000130C600450DC50CC40CC30CDB
:10064800C20CC60B202B4508D1004408D000430833
:10065800CF004208CE000130D2070318D30A003079
:10066800D3075308803AFF0080307F02031D3E2BDA
:10067800FF305202031C412B422B4D2B7F3083123B
:100688000313D1008030D0000030CF000030CE00FE
:10069800822B831203135308803AFF0080307F02B5
:1006A800031D582B0130520203185B2B5C2B682B5F
:1006B800003083120313D1000030D0000030CF0087
:1006C8000030CE00C701822B831203135208C200E8
:1006D8004208CD00FF30CE05FF30CF057F30D00572
:1006E8000030D1054D1C792B7A2B7B2BD0174D0868
:1006F800C2000310420CC3004308D1004708C200DF
:100708004208D1045108BD005008BC004F08BB0086
:100718004E08BA000800831203138C1E942B952BE5
:10072800A32B1A0883160313C4004408D4008312A9
:1007380003131A0883160313C4004408B000831275
:100748000C1FA72BA82BEB2D1F0C83160313C4001B
:10075800440C0F39003A031DB22BB32B542C2C0830
:100768002D04031DB82BB92BDB2B831203131E0892
:1007780083160313C4004408B800BE01FF30C40048
:100788004408BF000F30C0000030C1004B30C20029
:100798000030C30038080A128A110A270A128A117F
:1007A800831603133F08A3003E08A2001B2C2C034A
:1007B8002D04031DE02BE12BFB2BBE01FF30C400F1
:1007C8004408BF000F30C0000030C1004B30C200E9
:1007D8000030C30038080A128A110A270A128A113F
:1007E800831603133F08A3003E08A2001B2C023007
:1007F8002C062D04031D012C022C1B2CBE011F30BE
:10080800C4004408BF000F30C0000030C1004B30A6
:10081800C2000030C30034080A128A110A270A12DB
:100828008A11831603133F08A3003E08A200230879
:10083800C5002208C4000310C50CC40C0310C50C65
:10084800C40C4408831203139B0083160313220865
:100858000139C400C40E831203131D088316031341
:100868004406EF394406831203139D0083160313CD
:100878002308C5002208C4000310C50CC40C440892
:100888000139C600C60EC60D831203131D08831650
:1008980003134606DF394606831203139D00E92D2C
:1008A800831203131F0C83160313C400440C0F395F
:1008B800013A031D602C612CE92C2C082D04031D22
:1008C800662C672C892C831203131E0883160313C6
:1008D800C4004408B700BE01FF30C4004408BF008C
:1008E8000F30C0000030C1004B30C2000030C300E0
:1008F80037080A128A110A270A128A118316031363
:100908003F08A1003E08A000C92C2C032D04031D9C
:100918008E2C8F2CA92CBE01FF30C4004408BF00C8
:100928000F30C0000030C1004B30C2000030C3009F
:1009380037080A128A110A270A128A118316031322
:100948003F08A1003E08A000C92C02302C062D0447
:10095800031DAF2CB02CC92CBE011F30C4004408A5
:10096800BF000F30C0000030C1004B30C200003063
:10097800C30033080A128A110A270A128A11831639
:1009880003133F08A1003E08A0002108C500200865
:10099800C4000310C50CC40C0310C50CC40C4408D7
:1009A8008312031395008316031320080339C40028
:1009B800C40E831203131708831603134406CF3992
:1009C8004406831203139700E92D831203131F0CA7
:1009D80083160313C400440C0F39023A031DF52C87
:1009E800F62C652D2C082D04031DFB2CFC2C1E2D2C
:1009F800831203131E0883160313C4004408B600A9
:100A0800BE01FF30C4004408BF000F30C0000030F2
:100A1800C1004B30C2000030C30036080A128A11E8
:100A28000A270A128A11831603133F08DA003E08C0
:100A3800D9005E2D2C032D04031D232D242D3E2DBE
:100A4800BE01FF30C4004408BF000F30C0000030B2
:100A5800C1004B30C2000030C30036080A128A11A8
:100A68000A270A128A11831603133F08DA003E0880
:100A7800D9005E2D02302C062D04031D442D452D72
:100A88005E2DBE011F30C4004408BF000F30C000F7
:100A98000030C1004B30C2000030C30032080A12D7
:100AA8008A110A270A128A11831603133F08DA00EB
:100AB8003E08D9007F305905D90000305A05DA00C0
:100AC800E92D831203131F0C83160313C400440C6F
:100AD8000F39033A031D712D722DE92D2C082D04B1
:100AE800031D772D782D9A2D831203131E08831664
:100AF8000313C4004408B500BE01FF30C400440815
:100B0800BF000F30C0000030C1004B30C2000030C1
:100B1800C30035080A128A110A270A128A11831695
:100B280003133F08D8003E08D700DA2D2C032D0404
:100B3800031D9F2DA02DBA2DBE01FF30C40044080F
:100B4800BF000F30C0000030C1004B30C200003081
:100B5800C30035080A128A110A270A128A11831655
:100B680003133F08D8003E08D700DA2D02302C06C0
:100B78002D04031DC02DC12DDA2DBE011F30C40068
:100B88004408BF000F30C0000030C1004B30C20025
:100B98000030C30031080A128A110A270A128A1182
:100BA800831603133F08D8003E08D7007F30570547
:100BB800C40000305805C5004408803ED7004508E9
:100BC8000318013E003ED800E92D83120C130B1CBC
:100BD800EE2DEF2D452E0618F22DF32D0D2E01309A
:100BE80083160313AC070318AD0A0030AD072D08B0
:100BF800803AFF0080307F02031D042E03302C0250
:100C0800031C072E082E442E83160313AC01AD01D6
:100C1800442E8618102E112E292E831603132C0805
:100C28002D04031D182E192E1E2E0130AA00003087
:100C3800AB00442E2C032D04031D232E242E442EFA
:100C48000130A6000030A700442E06192C2E2D2EA8
:100C5800442E831603132C082D04031D342E352E21
:100C68003A2E0130A8000030A900442E2C032D0490
:100C7800031D3F2E402E442E0130A4000030A50055
:100C88000B10831603134908FF0048088A00470E13
:100C98008300FE0E7E0E0900F80078080319552E11
:100CA800562E6A2EF31F592E5A2E6A2E7009FA00F4
:100CB8007109FB007209FC007309FD00FA0A0319A7
:100CC800FB0A0319FC0A0319FD0A722E7308FD00BA
:100CD8007208FC007108FB007008FA0073087204BF
:100CE80071047004031D792E7A2E832E0030F300D0
:100CF8000030F2000030F1000030F000092F96308B
:100D0800F4007408F900952E0130F4007408F9070E
:100D180001300310FD0CFC0CFB0CFA0CFF3E031D0C
:100D28008D2EFE307D05031D9A2E9B2E882EB72E04
:100D38000130F4007408F9070130FA07003003188D
:100D48000130FB07003003180130FC07003003189E
:100D58000130FD0701300310FD0CFC0CFB0CFA0CF4
:100D6800FF3E031DAF2EFF307D05031DBC2EBD2E9B
:100D78009C2EC92E0130F9020130F4000310FA0D3F
:100D8800FB0DFC0DFD0DF40BC22EFC1BCC2ECD2E45
:100D9800D32E023079020318D22ED32EBE2E791804
:100DA800D62ED72EDF2EFF30FA05FF30FB057F3019
:100DB800FC05FF30FD050310F90C7908F400F50176
:100DC800F601F70118300310F40DF50DF60DF70DC7
:100DD800FF3E031DE72E7408FA047508FB04760825
:100DE800FC047708FD0478080319FB2EFC2E012F5C
:100DF800F31FFF2E002F012FFD177D08F3007C083D
:100E0800F2007B08F1007A08F0000800831203134F
:100E1800EE00831603134008F0004108F100F201C8
:100E2800F30100300A128A1150260A128A11730837
:100E380083120313DB007208DA007108D900700806
:100E4800D8008316031340084202F0004108031C2F
:100E5800410A4302F100F201F30100300A128A113B
:100E680050260A128A11730883120313A700720806
:100E7800A6007108A5007008A400831603133E0895
:100E88003F02F000F101031CF103F201F11BF20330
:100E98007208F30001300A128A1150260A128A11C8
:100EA800730883120313A3007208A2007108A1003B
:100EB8007008A0000A128A1572210A128A11831278
:100EC80003132308C1002208C0002108BF0020081E
:100ED800BE00831603133E08831203136E02F0004C
:100EE800F101031CF103F201F11BF2037208F30094
:100EF80001300A128A1150260A128A1173088312C5
:100F08000313BD007208BC007108BB007008BA006A
:100F18000A128A112E200A128A11831203133D081D
:100F2800D7003C08D6003B08D5003A08D4000A127E
:100F38008A1578250A128A11831203135708EB00C1
:100F48005608EA005508E9005408E8000A128A150C
:100F5800D6200A128A118312031369088316031311
:100F6800BF0083120313680883160313BE0008002A
:100F780083160313071587148312031397019D0122
:100F88009C308316031392003F3083120313970596
:100F98001708F0390C3897001D08F0390C389D00F7
:100FA8000B309500303097040B309B001D169D16B2
:100FB8008C100330920412158C1CE32FE42FE02FC1
:100FC8008C10831603130711871008007E088A0007
:100FD8007F0882000A128A11EA270A128A11800001
:100FE800840A04087D0603190034FF0A0319FE0A5F
:020FF800EE2FDA
:10100E0083160313181218158316031787158316E4
:10101E0003139A010C3099008312031398171813B7
:10102E008316031318139816831203131816080049
:10103E00C030831203139F04831603131F129F12D3
:10104E00C330831203139F05831603139F1383125A
:10105E0003131F14103083160313CA00CA0B35284E
:10106E0000000800F800F401F5017008F200F30129
:10107E007208F6007308F700781C462847284D289A
:10108E007608F4070318F50A7708F5070130031000
:10109E00F60DF70DFF3E031D4E280310F80C7808D1
:1010AE00031D5A285B2843287508F1007408F000C8
:1010BE00080083160313CB004B08831203178D0011
:1010CE00831603134A08831203178C008316031723
:1010DE008C130C158B1355308D00AA308D008C148B
:1010EE00831203130D1E7C287D2877280D1283167C
:1010FE0003170C110B10831203130C138B1708001C
:10110E000F3083160317880089010F3083160313DF
:10111E00850083120313850183160313880183123E
:10112E0003138801831603130F088F3930388F008D
:10113E000F140A128A151F200A128A150A128A1112
:10114E00BC270A128A150A168A11ED270A128A1569
:10115E000A128A1507200A128A158316031306141B
:10116E008614061583120313860183160313811347
:10117E001514951415158B17831203130D12831660
:10118E0003130C17831203130C138B1583160313FF
:10119E001614961416150B108C160B170800031048
:1011AE00831203136A0D6B0D83160313B9003908EE
:1011BE0083120313ED006D08031DE628E728F028BF
:1011CE000030EB000030EA000030E9000030E800AB
:1011DE007129680883160313B90083120313690873
:1011EE0083160313BA00831203136A0883160313BC
:1011FE00BB00831203136B0883160313BC001F304E
:10120E000310BC0CBB0CBA0CB90CFF3E031D072916
:10121E003908BD003D0883120313EC00EA17FF30B6
:10122E00E805FF30E905FF30EA050030EB059630A2
:10123E00ED02ED1F2329242942296D08803A973E9D
:10124E0003182A292B292C29E72801300310EB0C2F
:10125E00EA0CE90CE80CFF3E031D2D290130831624
:10126E000313B900390883120313ED07031D402938
:10127E0041292C29612920306D02031C4729482958
:10128E005C29E728013083160313B900031083127B
:10129E000313E80DE90DEA0DEB0D83160313B90BDD
:1012AE004D29013083120313ED026D08031D6029D1
:1012BE00612949296C080319652966297129E809EC
:1012CE00E909EA09EB09E80A0319E90A0319EA0A26
:1012DE000319EB0A08008312031327088039A800AC
:1012EE002808B1002708A8002807A9002908B80077
:1012FE00A61F8229832984293814380803198829BE
:10130E0089299929380A031D8D298E29962900309D
:10131E00A7000030A6000030A5000030A400A617DC
:10132E00A701A1290030A7000030A6000030A500BB
:10133E000030A40023088039A8002808B10623082D
:10134E00A8002807A9002908B900A21FAF29B029B3
:10135E00B129391439080319B529B629C629390A0C
:10136E00031DBA29BB29C3290030A3000030A200F7
:10137E000030A1000030A000A217A301CE2900303A
:10138E00A3000030A2000030A1000030A00023080E
:10139E00220421042004031DD529D629EF2900306B
:1013AE00A7000030A6000030A5000030A400803059
:1013BE00A6047F30A7043108A8002808A704270830
:1013CE00A3002608A2002508A1002408A0004E2B89
:1013DE003808031DF329F429FD290030A30000303D
:1013EE00A2000030A1000030A0004E2B3808A8004B
:1013FE00A9012908AB0039082802AA00031CAB0377
:10140E002A087F3EB2002B080318013E003EB300AF
:10141E002708B0002608AF002508AE002408AD004E
:10142E000030A7000030A6000030A5000030A40058
:10143E000030B7000030B6000030B5000030B40008
:10144E00B901732A390803192D2A2E2A4E2A013082
:10145E00A8000310AD0DAE0DAF0DB00DA80B302AC8
:10146E000130A8000310A40DA50DA60DA70DA80B05
:10147E00392AB71F432A442A452A24140130A800CA
:10148E000310B40DB50DB60DB70DA80B472A2308E2
:10149E003002031D5C2A22082F02031D5C2A21083C
:1014AE002E02031D5C2A20082D02031C5F2A602ACF
:1014BE006F2A37172008AD022108031C210FAE0238
:1014CE002208031C220FAF022308031C230FB002B5
:1014DE000130A8002808B9071A303902031C782AEF
:1014EE00792A292A30082F042E042D040319802A64
:1014FE00812AA02A3414A02A0130A8000310A40DBA
:10150E00A50DA60DA70DA80B852AB71F8F2A902A09
:10151E00912A24140130A8000310B40DB50DB60D98
:10152E00B70DA80B932AFF30B2070318B30AFF308A
:10153E00B307A61FA32AA42A832AB901B71FA82A74
:10154E00A92AC52AFF303405A800FF303505A900A9
:10155E00FF303605AA007F303705AB002B082A0472
:10156E00290428040319BC2ABD2AC02AB901B90AC4
:10157E00C52A241CC32AC42AC52ABD2A3908031920
:10158E00C92ACA2AFB2A0130A407003003180130E9
:10159E00A507003003180130A607003003180130EC
:1015AE00A707271CDB2ADC2AFB2A2408A80025080B
:1015BE00A9002608AA002708AB000130AC002B0DAD
:1015CE00AB0CAA0CA90CA80CAC0BE62A2B08A70096
:1015DE002A08A6002908A5002808A4000130B20791
:1015EE000318B30A0030B3073308803AFF00803087
:1015FE007F02031D042BFF303202031C072B082B26
:10160E00162BFF3083120313B2000030B3000030EC
:10161E00A7000030A6000030A5000030A400831201
:10162E0003133308803AFF0080307F02031D212B05
:10163E00013032020318242B252B322B8312031375
:10164E00B201B3010030A7000030A6000030A500A3
:10165E000030A400B101831203133208A800280839
:10166E00B800381C3B2B3C2B3E2BA617422B7F3051
:10167E00A8002808A6053808A8000310280CA90001
:10168E002908A7003108A8002808A704E6290800A1
:10169E000A128A1587200A128A158316031359080F
:1016AE0083120313930083160313141C5F2B602BFA
:1016BE005A2B523083160313CC00CC0B642B000034
:1016CE008316031357088312031393008316031311
:1016DE00141C722B732B6D2B2C082D04031D782BD1
:1016EE00792BF12B01308312031388008316031319
:1016FE002A032B04031D842B852BB82B3808CC0012
:10170E004C08CA0001300A128A1560200A128A1586
:10171E00831603133708CC004C08CA0002300A1295
:10172E008A1560200A128A15831603133608CC0018
:10173E004C08CA0003300A128A1560200A128A1554
:10174E00831603133508CC004C08CA0004300A1265
:10175E008A1560200A128A1583160313AA01AB019B
:10176E001C2D28032904031DBD2BBE2B1C2D380850
:10177E00CC004C08CA0005300A128A1560200A12E5
:10178E008A15831603133708CC004C08CA0006309E
:10179E000A128A1560200A128A1583160313360858
:1017AE00CC004C08CA0007300A128A1560200A12B3
:1017BE008A15831603133508CC004C08CA0008306E
:1017CE000A128A1560200A128A1583160313A801BD
:1017DE00A9011C2D2C032D04031DF62BF72BC42C55
:1017EE000230831203138800831603132603270483
:1017FE00031D022C032C602C01300A168A11DE27E1
:10180E000A128A1583160313CC004C08B80029302F
:10181E0083160313CD009330CC00CC0B142CCD0BC0
:10182E00142C192C02300A168A11DE270A128A1578
:10183E0083160313CC004C08B7002930831603130C
:10184E00CD009330CC00CC0B2A2CCD0B2A2C2F2C78
:10185E0003300A168A11DE270A128A15831603131D
:10186E00CC004C08B600293083160313CD009330FC
:10187E00CC00CC0B402CCD0B402C452C04300A1642
:10188E008A11DE270A128A1583160313CC004C0820
:10189E00B500293083160313CD009330CC00CC0B4A
:1018AE00562CCD0B562C5B2C83160313A601A701C9
:1018BE001C2D24032504031D652C662C1C2D0530C0
:1018CE000A168A11DE270A128A1583160313CC0014
:1018DE004C08B800293083160313CD009330CC008A
:1018EE00CC0B772CCD0B772C7C2C06300A168A115C
:1018FE00DE270A128A1583160313CC004C08B70094
:10190E00293083160313CD009330CC00CC0B8D2CD5
:10191E00CD0B8D2C922C07300A168A11DE270A1257
:10192E008A1583160313CC004C08B6002930831693
:10193E000313CD009330CC00CC0BA32CCD0BA32CDA
:10194E00A82C08300A168A11DE270A128A15831669
:10195E000313CC004C08B500293083160313CD00B9
:10196E009330CC00CC0BB92CCD0BB92CBE2C8316DE
:10197E000313A401A5011C2D1C2D02302C062D04D1
:10198E00031DCA2CCB2C1C2D04308312031388008C
:10199E008316031354082E060319D62CD72CE92CC4
:1019AE00831203130C1EDC2CDD2CE32C8316031385
:1019BE005408831203139900831603135408CC00A2
:1019CE004C08AE0030086039CC004C08AF002F0830
:1019DE00031DF22CF32CF92C30081F39CC004C08C7
:1019EE00B8001C2D20302F06031DFE2CFF2C052DBC
:1019FE0030081F39CC004C08B7001C2D40302F0684
:101A0E00031D0A2D0B2D112D30081F39CC004C084B
:101A1E00B6001C2D60302F06031D162D172DC32C5E
:101A2E0030081F39CC004C08B500831203139F18E1
:101A3E00212D222D542B1F0C83160313CC004C0C7E
:101A4E000F39003A031D2C2D2D2D342D8312031327
:101A5E001F08C33904389F006E2D831203131F0C09
:101A6E0083160313CC004C0C0F39013A031D402D85
:101A7E00412D482D831203131F08C33908389F00C8
:101A8E006E2D831203131F0C83160313CC004C0C04
:101A9E000F39023A031D542D552D5C2D831203135D
:101AAE001F08C3390C389F006E2D831203131F0CB1
:101ABE0083160313CC004C0C0F39033A031D682D0B
:101ACE00692D6E2DC330831203139F056E2D6F2D5E
:101ADE00702D0000831203139F14542B0A128A11C7
:101AEE0010288312031357088039DC005C08E400C9
:101AFE005708DC005C07DD005D08E600D61F882D68
:101B0E00892D8A2D6614660803198E2D8F2D9F2D13
:101B1E00660A031D932D942D9C2D0030D7000030A6
:101B2E00D6000030D5000030D400D617D701A72D2F
:101B3E000030D7000030D6000030D5000030D40081
:101B4E005B088039DC005C08E50065086406031953
:101B5E00B12DB22DB32D64175B08DC005C07DD00E0
:101B6E005D08E500DA1FBC2DBD2DBE2D6514650880
:101B7E000319C22DC32DD32D650A031DC72DC82DE4
:101B8E00D02D0030DB000030DA000030D9000030FC
:101B9E00D800DA17DB01DB2D0030DB000030DA0075
:101BAE000030D9000030D800660865020318E02D19
:101BBE00E12D252E641FE42DE52DE92D8030DC006E
:101BCE005C08E4066608DC005C08E7006508DC00DB
:101BDE005C08E6006708DC005C08E5005408DC00E1
:101BEE005C08E7005808DC005C08D4006708DC00DD
:101BFE005C08D8005508DC005C08E7005908DC00DA
:101C0E005C08D5006708DC005C08D9005608DC00CB
:101C1E005C08E7005A08DC005C08D6006708DC00A8
:101C2E005C08DA005708DC005C08E7005B08DC00A3
:101C3E005C08D7006708DC005C08DB00E70165087C
:101C4E00DC00DD015D08DF0066085C02DE00031CBF
:101C5E00DF035F08803AFF0080307F02031D392EBC
:101C6E001A305E02031C3C2E3D2E7A2E8312031375
:101C7E005708560455045404031D462E482E0130B1
:101C8E00492E0030DC005C08E7000030D700003041
:101C9E00D6000030D5000030D4006508DC005C08AA
:101CAE00E600822E671C5C2E5D2E662E6708DC0019
:101CBE0003105C0C0138DD005D08E700682E031090
:101CCE00E70C541C6B2E6C2E6D2EE7170130DC00CA
:101CDE00570DD70CD60CD50CD40CDC0B6F2E013057
:101CEE00DC005C08E6078312031365086602031C1A
:101CFE00812E822E592E641B852E862ED12E66089D
:101D0E00031D8A2E8B2E942E0030D7000030D60065
:101D1E000030D5000030D400FF2F5808D4075908E2
:101D2E0003110318013E03199D2ED5075A080311FE
:101D3E000318013E0319A42ED6075B0803110318DE
:101D4E00013E0319AB2ED707571CAE2EAF2E852F93
:101D5E00671CB22EB32EBC2E6708DC0003105C0C81
:101D6E000138DD005D08E700BE2E0310E70C541CA1
:101D7E00C12EC22EC32EE7170130DC00570DD70C33
:101D8E00D60CD50CD40CDC0BC52E0130DC005C0857
:101D9E00E607852F5708803AFF005B08803A7F02DE
:101DAE00031DE32E5A085602031DE32E5908550251
:101DBE00031DE32E580854020318E62EE72E3F2F7C
:101DCE00FF30DC00FF30DD00FF30DE00FF30DF00D3
:101DDE005808E0005908E1005A08E2005B08E300E9
:101DEE005408E0025508031C550FFE2EFF2EE1028B
:101DFE005608031C560F042F052FE2025708031C2A
:101E0E00570F0A2F0B2FE3026008DC076108031837
:101E1E00610F122F132FDD0762080318620F182FA0
:101E2E00192FDE0763080318630ADF075F08D70060
:101E3E005E08D6005D08D5005C08D4008030DC005A
:101E4E005C08E406E709E70A6708031D2F2F302F09
:101E5E004D2F0130D407003003180130D507003064
:101E6E0003180130D607003003180130D7074D2F65
:101E7E005808D4025908031C590FD5025A08031CDE
:101E8E005A0FD6025B08031C5B0FD7025708560485
:101E9E0055045404031D542F552F812F6708031D1D
:101EAE00592F5A2F812F0030D7000030D600003026
:101EBE00D5000030D400FF2F0130DC000310D40D0C
:101ECE00D50DD60DD70DDC0B652FE71F6F2F702F9D
:101EDE00712F5414671C742F752F782F0314E70D70
:101EEE007A2F0310E70D660803197E2F7F2F812F9F
:101EFE000130E602D61F842F852F632FE501E71FE1
:101F0E00892F8A2F982F67087F3903198F2F902FCB
:101F1E00932FE501E50A982F541C962F972F982F93
:101F2E00902F650803199C2F9D2FD12F0130D407B8
:101F3E00003003180130D507003003180130D607E2
:101F4E00003003180130D707571CAE2FAF2FD12FFB
:101F5E005408DC005508DD005608DE005708DF0087
:101F6E000130E0005F0DDF0CDE0CDD0CDC0CE00B55
:101F7E00B92F5F08D7005E08D6005D08D5005C0853
:101F8E00D400660A0319CC2FCD2FD12F0130DC00DF
:101F9E005C08E607660A0319D52FD62FDB2F6608D5
:101FAE00031DDA2FDB2FE92F0030D7000030D600CB
:101FBE000030D5000030D4006608031DE72FE82F4F
:101FCE00E92FE401661CEC2FED2FEF2FD617F32F20
:101FDE007F30DC005C08D6056608DC0003105C0C64
:101FEE00DD005D08D700E41FFD2FFE2FFF2FD71752
:021FFE000800D9
:102F920064008001840A0406031900340406CA2F5F
:102FA2004D346F34763465347234203420340D3429
:102FB2000A348C3400340C34003483160313CA00F0
:102FC2004A08831203178D00831603178C130C14FF
:102FD200831203170C08080090308316031387002E
:102FE200831203138701F03094051412941683168A
:0E2FF20003131417941783120313930108009E
:08400000FF3FFF3FFF3FFF3FC0
:04400E00D420FF3F7C
:00000001FF
