:060000000A128A110C280F
:10000800FE00030EF2000A08F3000A128A111628ED
:100018000A128A110F28F401F501F60183010A1268
:100028008A11D328831203138C1D1B281C286E28C1
:100038001308F0007008F60080307602031C2528AB
:100048002728013028280030F000F1017008F4005A
:100058007108F50076087F39F0007008F60074081A
:100068007504031D382839285A287608F00002300C
:100078000310F00CFF3E031D3C2870089B00760817
:100088000139F000F00E1D087006EF3970069D006A
:100098007608F0000310700C0139F100F10EF10D33
:1000A8001D087106DF3971069D006D287608F0007D
:1000B80002300310F00CFF3E031D5D287008950008
:1000C80076080339F000F00E17087006CF3970066D
:1000D80097008C1173088A00720E8300FE0E7E0E44
:1000E80009008316031307158312031397019D0153
:1000F8009C308316031392003F3083120313970535
:100108001708F0390C3897001D08F0390C389D0095
:100118000B309500303097040B309B001D169D1650
:100128008C100330920412158C1C9B289C2898284C
:100138008C10831603130711871008008316031702
:10014800880189018316031385160F088F39303803
:100158008F000F140A128A11C1200A128A110A127A
:100168008A1175200A128A118B17831203138C11B6
:10017800831603138C150B17080018308316031306
:1001880087008312031387011408F0390438940098
:1001980014129416831603131417941308000A12E2
:1001A8008A11A2200A128A11D8280A128A110C2848
:08400000FF3FFF3FFF3FFF3FC0
:04400E00D420FF3F7C
:00000001FF
