:060000000A128A1110280B
:10000800FE00030E83160313CF000A08D0007F08F2
:10001800D1000A128A118F2B0A128A11132883130E
:10002800DF30FD001730FE009D30FF00D230840025
:100038000A128A11EE270A128A11A0308400C130F0
:100048000A168A1195270A128A11EF0183010A12EA
:100058008A15172B831203133D088039C200420802
:10006800C7003D08C2004207C3004308CD00BC1FBB
:100078003E283F2840284D144D0803194428452898
:1000880054284D0A031D49284A2852280030BD002B
:100098000030BC000030BB000030BA00BC175C2840
:1000A8000030BD000030BC000030BB000030BA009A
:1000B80041088039C2004208C7064108C200420709
:1000C800C3004308CC00C01F6A286B286C284C1456
:1000D8004C0803197028712880284C0A031D7528BC
:1000E80076287E280030C1000030C0000030BF00F4
:1000F8000030BE00C01788280030C1000030C000A2
:100108000030BF000030BE004C0803198C288D2831
:1001180092284D08031D912892289B280030BD0085
:100128000030BC000030BB000030BA008E2B3A080B
:10013800C2004208F00040080A128A1502200A127A
:100148008A11710883120313D3007008D200520871
:10015800C200C301C401C5014508CB004408CA0058
:100168004308C9004208C8005308C200C301C401BB
:10017800C5014508D1004408D0004308CF00420813
:10018800CE003B08C2004208F0003F080A128A1558
:1001980002200A128A11710883120313D30070080F
:1001A800D2005208C200C301C401C5014208C807F1
:1001B800430803110318013E0319E328C90744083B
:1001C80003110318013E0319EA28CA074508031159
:1001D8000318013E0319F128CB075308C200C301D5
:1001E800C401C5014208CE07430803110318013EA4
:1001F8000319FF28CF07440803110318013E031908
:100208000629D007450803110318013E03190D29D3
:10021800D1073C08C2004208F0003E080A128A15BD
:1002280002200A128A11710883120313D30070087E
:10023800D2005208C200C301C401C5014208C80760
:10024800430803110318013E03192B29C907440861
:1002580003110318013E03193229CA07450803117F
:100268000318013E03193929CB075308C200C301FB
:10027800C401C5014208CE07430803110318013E13
:1002880003194729CF07440803110318013E03192E
:100298004E29D007450803110318013E03195529B3
:1002A800D1070830C2000310C80DC90DCA0DCB0D07
:1002B800C20B57293B08C2004208F0003E080A1248
:1002C8008A1502200A128A11710883120313D300B7
:1002D8007008D2005208C2005308C300C401C50107
:1002E8004208C807430803110318013E03197D2972
:1002F800C907440803110318013E03198429CA07D2
:10030800450803110318013E03198B29CB073A0846
:10031800C2004208F0003F080A128A1502200A1299
:100328008A11710883120313D3007008D20052088F
:10033800C2005308C300C401C5014208C8074308E6
:1003480003110318013E0319AA29C9074408031118
:100358000318013E0319B129CA07450803110318F8
:10036800013E0319B829CB070830C2000310C80D95
:10037800C90DCA0DCB0DC20BBA293A08C2004208F2
:10038800F0003E080A128A1502200A128A11710822
:1003980083120313D3007008D2005208C200530816
:1003A800C300C401C5014208C80743080311031864
:1003B800013E0319E029C907440803110318013E47
:1003C8000319E729CA07450803110318013E031951
:1003D800EE29CB073B08C2004208F00040080A1289
:1003E8008A1502200A128A11710883120313D30096
:1003F8007008D2005208C2005308C300C401C501E6
:100408004208CE07430803110318013E03190D2AB9
:10041800CF07440803110318013E0319142AD00713
:10042800450803110318013E03191B2AD1073C088C
:10043800C2004208F0003F080A128A1502200A1278
:100448008A11710883120313D3007008D20052086E
:10045800C2005308C300C401C5014208CE074308BF
:1004680003110318013E03193A2ACF074408031160
:100478000318013E0319412AD00745080311031840
:10048800013E0319482AD1073C08C2004208F0007F
:1004980040080A128A1502200A128A11710883126A
:1004A8000313D3007008D2005208C2005308C300D7
:1004B800C401C50108300310C20DC30DC40DC50D1C
:1004C800FF3E031D5F2A4208CE07430803110318A5
:1004D800013E0319702ACF07440803110318013E8F
:1004E8000319772AD007450803110318013E031999
:1004F8007E2AD1074808C2004908C3004A08C40038
:100508004B08C50018300310C50CC40CC30CC20C32
:10051800FF3E031D872A4208CE074308031103182C
:10052800013E0319982ACF07440803110318013E16
:1005380003199F2AD007450803110318013E031920
:10054800A62AD1070830C2000310C80DC90DCA0D6C
:10055800CB0DC20BA82A4D084C07C200C301C30D1E
:100568004208823ED20043080318013EFF3ED300F2
:10057800DA2A0130C2000310CE0DCF0DD00DD10DF7
:10058800C20BBF2ACB1FC92ACA2ACB2A4E14013054
:10059800C2000310C80DC90DCA0DCB0DC20BCD2A60
:1005A800FF30D2070318D30AFF30D307D01FDD2A44
:1005B800DE2ABD2ACC01CB1FE22AE32AFF2AFF301C
:1005C8004805C200FF304905C300FF304A05C40092
:1005D8007F304B05C5004508440443044204031911
:1005E800F62AF72AFA2ACC01CC0AFF2A4E1CFD2A41
:1005F800FE2AFF2AF72A4C080319032B042B352B54
:100608000130CE07003003180130CF07003003183F
:100618000130D007003003180130D107511C152BC9
:10062800162B352B4E08C2004F08C3005008C400D3
:100638005108C5000130C600450DC50CC40CC30CDB
:10064800C20CC60B202B4508D1004408D000430833
:10065800CF004208CE000130D2070318D30A003079
:10066800D3075308803AFF0080307F02031D3E2BDA
:10067800FF305202031C412B422B4D2B7F3083123B
:100688000313D1008030D0000030CF000030CE00FE
:10069800822B831203135308803AFF0080307F02B5
:1006A800031D582B0130520203185B2B5C2B682B5F
:1006B800003083120313D1000030D0000030CF0087
:1006C8000030CE00C701822B831203135208C200E8
:1006D8004208CD00FF30CE05FF30CF057F30D00572
:1006E8000030D1054D1C792B7A2B7B2BD0174D0868
:1006F800C2000310420CC3004308D1004708C200DF
:100708004208D1045108BD005008BC004F08BB0086
:100718004E08BA000800831203138C1E942B952BE5
:10072800A32B1A0883160313CC004C08D800831295
:1007380003131A0883160313CC004C08B70083125E
:100748000C1FA72BA82BEB2D1F0C83160313CC0013
:100758004C0C0F39003A031DB22BB32B542C340820
:100768003504031DB82BB92BDB2B831203131E088A
:1007780083160313CC004C08C000C601FF30CC0020
:100788004C08C7000F30C8000030C9004B30CA0001
:100798000030CB0040080A128A110A270A128A116F
:1007A800831603134708AB004608AA001B2C340322
:1007B8003504031DE02BE12BFB2BC601FF30CC00D9
:1007C8004C08C7000F30C8000030C9004B30CA00C1
:1007D8000030CB0040080A128A110A270A128A112F
:1007E800831603134708AB004608AA001B2C0230E7
:1007F80034063504031D012C022C1B2CC6011F30A6
:10080800CC004C08C7000F30C8000030C9004B307E
:10081800CA000030CB003C080A128A110A270A12C3
:100828008A11831603134708AB004608AA002B0851
:10083800CD002A08CC000310CD0CCC0C0310CD0C35
:10084800CC0C4C08831203139B00831603132A084D
:100858000139CC00CC0E831203131D088316031331
:100868004C06EF394C06831203139D0083160313BD
:100878002B08CD002A08CC000310CD0CCC0C4C085A
:100888000139CE00CE0ECE0D831203131D08831638
:1008980003134E06DF394E06831203139D00E92D1C
:1008A800831203131F0C83160313CC004C0C0F394F
:1008B800013A031D602C612CE92C34083504031D12
:1008C800662C672C892C831203131E0883160313C6
:1008D800CC004C08BF00C601FF30CC004C08C70054
:1008E8000F30C8000030C9004B30CA000030CB00C0
:1008F8003F080A128A110A270A128A11831603135B
:100908004708A9004608A800C92C34033504031D6C
:100918008E2C8F2CA92CC601FF30CC004C08C700A8
:100928000F30C8000030C9004B30CA000030CB007F
:100938003F080A128A110A270A128A11831603131A
:100948004708A9004608A800C92C02303406350417
:10095800031DAF2CB02CC92CC6011F30CC004C088D
:10096800C7000F30C8000030C9004B30CA00003043
:10097800CB003B080A128A110A270A128A11831629
:1009880003134708A9004608A8002908CD0028082D
:10099800CC000310CD0CCC0C0310CD0CCC0C4C08A7
:1009A8008312031395008316031328080339CC0018
:1009B800CC0E831203131708831603134C06CF3982
:1009C8004C06831203139700E92D831203131F0C9F
:1009D80083160313CC004C0C0F39023A031DF52C77
:1009E800F62C652D34083504031DFB2CFC2C1E2D1C
:1009F800831203131E0883160313CC004C08BE0091
:100A0800C601FF30CC004C08C7000F30C8000030CA
:100A1800C9004B30CA000030CB003E080A128A11C8
:100A28000A270A128A11831603134708DE004608AC
:100A3800DD005E2D34033504031D232D242D3E2DAA
:100A4800C601FF30CC004C08C7000F30C80000308A
:100A5800C9004B30CA000030CB003E080A128A1188
:100A68000A270A128A11831603134708DE0046086C
:100A7800DD005E2D023034063504031D442D452D5E
:100A88005E2DC6011F30CC004C08C7000F30C800CF
:100A98000030C9004B30CA000030CB003A080A12B7
:100AA8008A110A270A128A11831603134708DE00DF
:100AB8004608DD007F305D05DD0000305E05DE00A4
:100AC800E92D831203131F0C83160313CC004C0C5F
:100AD8000F39033A031D712D722DE92D34083504A1
:100AE800031D772D782D9A2D831203131E08831664
:100AF8000313CC004C08BD00C601FF30CC004C08E5
:100B0800C7000F30C8000030C9004B30CA000030A1
:100B1800CB003D080A128A110A270A128A11831685
:100B280003134708DC004608DB00DA2D34033504DC
:100B3800031D9F2DA02DBA2DC601FF30CC004C08F7
:100B4800C7000F30C8000030C9004B30CA00003061
:100B5800CB003D080A128A110A270A128A11831645
:100B680003134708DC004608DB00DA2D02303406A0
:100B78003504031DC02DC12DDA2DC6011F30CC0050
:100B88004C08C7000F30C8000030C9004B30CA00FD
:100B98000030CB0039080A128A110A270A128A1172
:100BA800831603134708DC004608DB007F305B052B
:100BB800CC0000305C05CD004C08803EDB004D08C1
:100BC8000318013E003EDC00E92D83120C130B1CB8
:100BD800EE2DEF2D452E0618F22DF32D0D2E01309A
:100BE80083160313B4070318B50A0030B507350890
:100BF800803AFF0080307F02031D042E0330340248
:100C0800031C072E082E442E83160313B401B501C6
:100C1800442E8618102E112E292E831603133408FD
:100C28003504031D182E192E1E2E0130B200003077
:100C3800B300442E34033504031D232E242E442EE2
:100C48000130AE000030AF00442E06192C2E2D2E98
:100C5800442E8316031334083504031D342E352E11
:100C68003A2E0130B0000030B100442E3403350470
:100C7800031D3F2E402E442E0130AC000030AD0045
:100C88000B10831603135108FF0050088A004F0EFB
:100C98008300FE0E7E0E0900F80078080319552E11
:100CA800562E6A2EF31F592E5A2E6A2E7009FA00F4
:100CB8007109FB007209FC007309FD00FA0A0319A7
:100CC800FB0A0319FC0A0319FD0A722E7308FD00BA
:100CD8007208FC007108FB007008FA0073087204BF
:100CE80071047004031D792E7A2E832E0030F300D0
:100CF8000030F2000030F1000030F000092F96308B
:100D0800F4007408F900952E0130F4007408F9070E
:100D180001300310FD0CFC0CFB0CFA0CFF3E031D0C
:100D28008D2EFE307D05031D9A2E9B2E882EB72E04
:100D38000130F4007408F9070130FA07003003188D
:100D48000130FB07003003180130FC07003003189E
:100D58000130FD0701300310FD0CFC0CFB0CFA0CF4
:100D6800FF3E031DAF2EFF307D05031DBC2EBD2E9B
:100D78009C2EC92E0130F9020130F4000310FA0D3F
:100D8800FB0DFC0DFD0DF40BC22EFC1BCC2ECD2E45
:100D9800D32E023079020318D22ED32EBE2E791804
:100DA800D62ED72EDF2EFF30FA05FF30FB057F3019
:100DB800FC05FF30FD050310F90C7908F400F50176
:100DC800F601F70118300310F40DF50DF60DF70DC7
:100DD800FF3E031DE72E7408FA047508FB04760825
:100DE800FC047708FD0478080319FB2EFC2E012F5C
:100DF800F31FFF2E002F012FFD177D08F3007C083D
:100E0800F2007B08F1007A08F0000800831203134F
:100E1800EE00831603134808F0004908F100F201B8
:100E2800F30100300A128A1150260A128A11730837
:100E380083120313DB007208DA007108D900700806
:100E4800D8008316031348084A02F0004908031C17
:100E5800490A4B02F100F201F30100300A128A112B
:100E680050260A128A11730883120313A700720806
:100E7800A6007108A5007008A4008316031346088D
:100E88004702F000F101031CF103F201F11BF20328
:100E98007208F30001300A128A1150260A128A11C8
:100EA800730883120313A3007208A2007108A1003B
:100EB8007008A0000A128A153A210A128A118312B0
:100EC80003132308C1002208C0002108BF0020081E
:100ED800BE00831603134608831203136E02F00044
:100EE800F101031CF103F201F11BF2037208F30094
:100EF80001300A128A1150260A128A1173088312C5
:100F08000313BD007208BC007108BB007008BA006A
:100F18000A128A112E200A128A11831203133D081D
:100F2800D7003C08D6003B08D5003A08D4000A127E
:100F38008A1578250A128A11831203135708EB00C1
:100F48005608EA005508E9005408E8000A128A150C
:100F58009E200A128A118312031369088316031349
:100F6800C70083120313680883160313C60008001A
:100F780083160313071587148312031397019D0122
:100F88009C308316031392003F3083120313970596
:100F98001708F0390C3897001D08F0390C389D00F7
:100FA8000B309500303097040B309B001D169D16B2
:100FB8008C100330920412158C1CE32FE42FE02FC1
:100FC8008C10831603130711871008007E088A0007
:100FD8007F0882000A128A11EA270A128A11800001
:100FE800840A04087D0603190034FF0A0319FE0A5F
:020FF800EE2FDA
:10100400F800F401F5017008F200F3017208F6002B
:101014007308F700781C0F28102816287608F407A0
:101024000318F50A7708F50701300310F60DF70DDC
:10103400FF3E031D17280310F80C7808031D23280E
:1010440024280C287508F1007408F00008008316A1
:10105400031791001108831203178D0083160317D9
:101064001008831203178C00831603178C130C15B6
:101074008B1355308D00AA308D008C14831203130A
:101084000D1E4528462840280D12831603170C11FF
:101094000B10831203130C138B1708000F308316E5
:1010A4000317880089010F30831603138500831208
:1010B4000313850183160313880183120313880124
:1010C400831603130F088F3930388F000F140A1654
:1010D4008A11CC270A128A150A128A11BC270A120D
:1010E4008A150A168A11B9270A128A150A168A114C
:1010F400E6270A128A1583160313061486140615A6
:101104008312031386018316031381131514951494
:1011140015158B17831203130D12831603130C1763
:10112400831203130C138B158316031316149614CE
:1011340016150B100B1708000310831203136A0D06
:101144006B0D83160313C100410883120313ED00D2
:101154006D08031DAE28AF28B8280030EB0000301E
:10116400EA000030E9000030E800392968088316F5
:101174000313C10083120313690883160313C20007
:10118400831203136A0883160313C3008312031321
:101194006B0883160313C4001F300310C40CC30C64
:1011A400C20CC10CFF3E031DCF284108C5004508F1
:1011B40083120313EC00EA17FF30E805FF30E9055A
:1011C400FF30EA050030EB059630ED02ED1FEB2809
:1011D400EC280A296D08803A973E0318F228F32870
:1011E400F428AF2801300310EB0CEA0CE90CE80CEE
:1011F400FF3E031DF528013083160313C100410887
:1012040083120313ED07031D08290929F42829294A
:1012140020306D02031C0F2910292429AF28013026
:1012240083160313C100031083120313E80DE90DA1
:10123400EA0DEB0D83160313C10B1529013083123C
:101244000313ED026D08031D2829292911296C08AF
:1012540003192D292E293929E809E909EA09EB0995
:10126400E80A0319E90A0319EA0A0319EB0A080050
:101274008312031327088039A8002808B10027081F
:10128400A8002807A9002908B800A61F4A294B2945
:101294004C29381438080319502951296129380A6E
:1012A400031D552956295E290030A7000030A600E9
:1012B4000030A5000030A400A617A701692900305A
:1012C400A7000030A6000030A5000030A4002308C9
:1012D4008039A8002808B1062308A8002807A90017
:1012E4002908B900A21F77297829792939143908DE
:1012F40003197D297E298E29390A031D8229832910
:101304008B290030A3000030A2000030A10000307F
:10131400A000A217A30196290030A3000030A20068
:101324000030A1000030A00023082204210420047E
:10133400031D9D299E29B7290030A7000030A6006F
:101344000030A5000030A4008030A6047F30A7043C
:101354003108A8002808A7042708A3002608A2002B
:101364002508A1002408A000162B3808031DBB295A
:10137400BC29C5290030A3000030A2000030A10020
:101384000030A000162B3808A800A9012908AB00DA
:1013940039082802AA00031CAB032A087F3EB200C6
:1013A4002B080318013E003EB3002708B0002608AE
:1013B400AF002508AE002408AD000030A7000030BF
:1013C400A6000030A5000030A4000030B7000030B3
:1013D400B6000030B5000030B400B9013B2A39082A
:1013E4000319F529F629162A0130A8000310AD0DBA
:1013F400AE0DAF0DB00DA80BF8290130A8000310F5
:10140400A40DA50DA60DA70DA80B012AB71F0B2A25
:101414000C2A0D2A24140130A8000310B40DB50DB4
:10142400B60DB70DA80B0F2A23083002031D242A7A
:1014340022082F02031D242A21082E02031D242A18
:1014440020082D02031C272A282A372A37172008A8
:10145400AD022108031C210FAE022208031C220F37
:10146400AF022308031C230FB0020130A800280890
:10147400B9071A303902031C402A412AF1293008DD
:101484002F042E042D040319482A492A682A3414E7
:10149400682A0130A8000310A40DA50DA60DA70D00
:1014A400A80B4D2AB71F572A582A592A2414013049
:1014B400A8000310B40DB50DB60DB70DA80B5B2A2B
:1014C400FF30B2070318B30AFF30B307A61F6B2A15
:1014D4006C2A4B2AB901B71F702A712A8D2AFF3052
:1014E4003405A800FF303505A900FF303605AA00F1
:1014F4007F303705AB002B082A042904280403197C
:10150400842A852A882AB901B90A8D2A241C8B2A9F
:101514008C2A8D2A852A39080319912A922AC32AEA
:101524000130A407003003180130A5070030031868
:101534000130A607003003180130A707271CA32A8F
:10154400A42AC32A2408A8002508A9002608AA005A
:101554002708AB000130AC002B0DAB0CAA0CA90C76
:10156400A80CAC0BAE2A2B08A7002A08A600290851
:10157400A5002808A4000130B2070318B30A0030FC
:10158400B3073308803AFF0080307F02031DCC2A62
:10159400FF303202031CCF2AD02ADE2AFF30831206
:1015A4000313B2000030B3000030A7000030A600DF
:1015B4000030A5000030A400831203133308803ADE
:1015C400FF0080307F02031DE92A01303202031834
:1015D400EC2AED2AFA2A83120313B201B301003074
:1015E400A7000030A6000030A5000030A400B1011F
:1015F400831203133208A8002808B800381C032BF0
:10160400042B062BA6170A2B7F30A8002808A60552
:101614003808A8000310280CA9002908A7003108DD
:10162400A8002808A704AE2908000A128A15502029
:101634000A128A15831603135D0883120313930099
:1016440083160313141C272B282B222B52308316AA
:1016540003179200920B2C2B0000831603135B08D4
:1016640083120313930083160313141C3A2B3B2B8E
:10167400352B34083504031D402B412BC92B013075
:101684008312031388008316031332033304031DE8
:101694004C2B4D2B882B40088316031792001208FD
:1016A400900001300A128A1529200A128A1583161D
:1016B40003133F08831603179200120890000230A8
:1016C4000A128A1529200A128A15831603133E0862
:1016D4008316031792001208900003300A128A1529
:1016E40029200A128A15831603133D08831603174B
:1016F40092001208900004300A128A1529200A1256
:101704008A1583160313B201B3011C2D300331046F
:10171400031D8D2B8E2B1C2D40088316031792005E
:101724001208900005300A128A1529200A128A1517
:10173400831603133F0883160317920012089000C0
:1017440006300A128A1529200A128A1583160313F1
:101754003E088316031792001208900007300A12FD
:101764008A1529200A128A15831603133D08831645
:10177400031792001208900008300A128A152920D3
:101784000A128A1583160313B001B1011C2D340308
:101794003504031DCE2BCF2BAC2C02308312031344
:1017A4008800831603132E032F04031DDA2BDB2B6F
:1017B400402C01300A168A11AA270A128A158316A8
:1017C40003179200120883160313C00029308316EE
:1017D4000317930093309200920BEE2B930BEE2B96
:1017E400F32B02300A168A11AA270A128A158316C5
:1017F40003179200120883160313BF0029308316BF
:101804000317930093309200920B062C930B062C33
:101814000B2C03300A168A11AA270A128A1583167A
:1018240003179200120883160313BE00293083168F
:101834000317930093309200920B1E2C930B1E2CD3
:10184400232C04300A168A11AA270A128A15831631
:1018540003179200120883160313BD002930831660
:101864000317930093309200920B362C930B362C73
:101874003B2C83160313AE01AF011C2D2C032D0446
:10188400031D452C462C1C2D05300A168A11AA2747
:101894000A128A158316031792001208831603137B
:1018A400C000293083160317930093309200920BE3
:1018B400592C930B592C5E2C06300A168A11AA2730
:1018C4000A128A158316031792001208831603134B
:1018D400BF00293083160317930093309200920BB4
:1018E400712C930B712C762C07300A168A11AA27B7
:1018F4000A128A158316031792001208831603131B
:10190400BE00293083160317930093309200920B84
:10191400892C930B892C8E2C08300A168A11AA273D
:101924000A128A15831603179200120883160313EA
:10193400BD00293083160317930093309200920B55
:10194400A12C930BA12CA62C83160313AC01AD017F
:101954001C2D1C2D023034063504031DB22CB32C6F
:101964001C2D0430831203138800831603135808B4
:1019740038060319BE2CBF2CD52C831203130C1E5E
:10198400C42CC52CCB2C83160313580883120313C1
:10199400990083160313580883160317920012083C
:1019A40083160313B80037086039831603179200AF
:1019B400120883160313B6003608031DE22CE32C29
:1019C400ED2C37081F39831603179200120883166B
:1019D4000313BC001C2D20303606031DF22CF32CFF
:1019E400FD2C37081F39831603179200120883163B
:1019F4000313BB001C2D40303606031D022D032D9E
:101A04000D2D37081F398316031792001208831609
:101A14000313BA001C2D60303606031D122D132D3E
:101A2400AB2C37081F39831603179200120883164C
:101A34000313B900831203139F18212D222D1C2B8D
:101A44001F0C831603179200120C0F39003A031D62
:101A54002C2D2D2D342D831203131F08C339043864
:101A64009F006E2D831203131F0C8316031792001D
:101A7400120C0F39013A031D402D412D482D8312BC
:101A840003131F08C33908389F006E2D83120313F4
:101A94001F0C831603179200120C0F39023A031D10
:101AA400542D552D5C2D831203131F08C3390C3894
:101AB4009F006E2D831203131F0C831603179200CD
:101AC400120C0F39033A031D682D692D6E2DC33096
:101AD400831203139F056E2D6F2D702D000083124A
:101AE40003139F141C2B0A128A1110288312031348
:101AF40057088039DC005C08E4005708DC005C0708
:101B0400DD005D08E600D61F882D892D8A2D661418
:101B1400660803198E2D8F2D9F2D660A031D932DA4
:101B2400942D9C2D0030D7000030D6000030D50015
:101B34000030D400D617D701A72D0030D7000030CD
:101B4400D6000030D5000030D4005B088039DC00BA
:101B54005C08E500650864060319B12DB22DB32DA8
:101B640064175B08DC005C07DD005D08E500DA1F34
:101B7400BC2DBD2DBE2D651465080319C22DC32DC2
:101B8400D32D650A031DC72DC82DD02D0030DB00D1
:101B94000030DA000030D9000030D800DA17DB0159
:101BA400DB2D0030DB000030DA000030D9000030DB
:101BB400D800660865020318E02DE12D252E641F68
:101BC400E42DE52DE92D8030DC005C08E406660890
:101BD400DC005C08E7006508DC005C08E6006708D8
:101BE400DC005C08E5005408DC005C08E7005808E9
:101BF400DC005C08D4006708DC005C08D8005508E9
:101C0400DC005C08E7005908DC005C08D5006708C4
:101C1400DC005C08D9005608DC005C08E7005A08C0
:101C2400DC005C08D6006708DC005C08DA005708B2
:101C3400DC005C08E7005B08DC005C08D700670890
:101C4400DC005C08DB00E7016508DC00DD015D0801
:101C5400DF0066085C02DE00031CDF035F08803AD5
:101C6400FF0080307F02031D392E1A305E02031CF0
:101C74003C2E3D2E7A2E8312031357085604550426
:101C84005404031D462E482E0130492E0030DC003A
:101C94005C08E7000030D7000030D6000030D500E3
:101CA4000030D4006508DC005C08E600822E671C66
:101CB4005C2E5D2E662E6708DC0003105C0C013878
:101CC400DD005D08E700682E0310E70C541C6B2E42
:101CD4006C2E6D2EE7170130DC00570DD70CD60C97
:101CE400D50CD40CDC0B6F2E0130DC005C08E6074D
:101CF4008312031365086602031C812E822E592E5B
:101D0400641B852E862ED12E6608031D8A2E8B2EEB
:101D1400942E0030D7000030D6000030D5000030BB
:101D2400D400FF2F5808D407590803110318013EA3
:101D340003199D2ED5075A0803110318013E0319F0
:101D4400A42ED6075B0803110318013E0319AB2E1A
:101D5400D707571CAE2EAF2E852F671CB22EB32E7D
:101D6400BC2E6708DC0003105C0C0138DD005D0844
:101D7400E700BE2E0310E70C541CC12EC22EC32E46
:101D8400E7170130DC00570DD70CD60CD50CD40C5A
:101D9400DC0BC52E0130DC005C08E607852F5708F4
:101DA400803AFF005B08803A7F02031DE32E5A0845
:101DB4005602031DE32E59085502031DE32E58084D
:101DC40054020318E62EE72E3F2FFF30DC00FF30CD
:101DD400DD00FF30DE00FF30DF005808E000590866
:101DE400E1005A08E2005B08E3005408E0025508E9
:101DF400031C550FFE2EFF2EE1025608031C560F3E
:101E0400042F052FE2025708031C570F0A2F0B2F2C
:101E1400E3026008DC0761080318610F122F132F17
:101E2400DD0762080318620F182F192FDE076308F5
:101E34000318630ADF075F08D7005E08D6005D0851
:101E4400D5005C08D4008030DC005C08E406E709B7
:101E5400E70A6708031D2F2F302F4D2F0130D407B9
:101E6400003003180130D507003003180130D607BD
:101E7400003003180130D7074D2F5808D4025908F1
:101E8400031C590FD5025A08031C5A0FD6025B08CB
:101E9400031C5B0FD7025708560455045404031D52
:101EA400542F552F812F6708031D592F5A2F812F27
:101EB4000030D7000030D6000030D5000030D40008
:101EC400FF2F0130DC000310D40DD50DD60DD70D36
:101ED400DC0B652FE71F6F2F702F712F5414671CB5
:101EE400742F752F782F0314E70D7A2F0310E70D45
:101EF400660803197E2F7F2F812F0130E602D61F3B
:101F0400842F852F632FE501E71F892F8A2F982FB0
:101F140067087F3903198F2F902F932FE501E50A66
:101F2400982F541C962F972F982F902F65080319DC
:101F34009C2F9D2FD12F0130D4070030031801307E
:101F4400D507003003180130D607003003180130DC
:101F5400D707571CAE2FAF2FD12F5408DC005508DC
:101F6400DD005608DE005708DF000130E0005F0D99
:101F7400DF0CDE0CDD0CDC0CE00BB92F5F08D700A6
:101F84005E08D6005D08D5005C08D400660A031913
:101F9400CC2FCD2FD12F0130DC005C08E607660A78
:101FA4000319D52FD62FDB2F6608031DDA2FDB2F5D
:101FB400E92F0030D7000030D6000030D5000030C3
:101FC400D4006608031DE72FE82FE92FE401661CFF
:101FD400EC2FED2FEF2FD617F32F7F30DC005C08AA
:101FE400D6056608DC0003105C0CDD005D08D70034
:0C1FF400E41FFD2FFE2FFF2FD717080061
:102F2A0064008001840A0406031900340406962FFB
:102F3A004D346F34763465347234203420340D3491
:102F4A000A348C3400340C3400348316031790008E
:102F5A001008831203178D00831603178C130C14A1
:102F6A00831203170C080800903083160313870096
:102F7A00831203138701F0309405141294168316F2
:102F8A000313141794178312031393010800C03014
:102F9A00831203139F04831603131F129F12C33055
:102FAA00831203139F05831603139F1383120313BC
:102FBA001F141030831603179000900BE22F0000A5
:102FCA00080083160313181218158316031787159A
:102FDA00831603139A010C3099008312031398176E
:102FEA0018138316031398168312031318168316DD
:062FFA0003138C16080011
:08400000FF3FFF3FFF3FFF3FC0
:04400E00D420FF3F7C
:00000001FF
